:020000040800F2
:1000000000500020C5420008FD41000833410008AF
:100010003541000837410008394100080000000060
:100020000000000000000000000000003B4100084C
:100030003D410008000000003F4100084141000828
:100040000D4300080D4300080D4300080D43000850
:100050000D4300080D4300080D4300080D43000840
:100060000D4300080D4300080D4300080D43000830
:100070000D4300080D4300080D4300080D43000820
:100080000D4300080D4300080D4300080D43000810
:100090000D4300080D4300080D4300080D43000800
:1000A0000D4300085D4100080D4300080D430008A2
:1000B0000D4300080D4300080D4300080D430008E0
:1000C0000D4300080D4300080D4300080D430008D0
:1000D0000D4300080D4300080D4300080D430008C0
:1000E000454100080D4300080D43000800000000D2
:1000F0000000000000000000000000000000000000
:0C01000000000000000000005FF808F1A3
:1001100010B5054C237833B9044B13B10448AFF341
:1001200000800123237010BD700200200000000039
:10013000E85E000808B5034B1BB103490348AFF361
:10014000008008BD0000000074020020E85E000886
:10015000034613F8012B002AFBD1181A0138704707
:1001600081F0004102E000BF83F0004330B54FEA68
:1001700041044FEA430594EA050F08BF90EA020FD5
:100180001FBF54EA000C55EA020C7FEA645C7FEA68
:10019000655C00F0E2804FEA5454D4EB5555B8BF8B
:1001A0006D420CDD2C4480EA020281EA030382EAFC
:1001B000000083EA010180EA020281EA0303362D8E
:1001C00088BF30BD11F0004F4FEA01314FF4801C61
:1001D0004CEA113102D0404261EB410113F0004F73
:1001E0004FEA03334CEA133302D0524263EB43032A
:1001F00094EA050F00F0A780A4F10104D5F1200EC8
:100200000DDB02FA0EFC22FA05F2801841F1000122
:1002100003FA0EF2801843FA05F359410EE0A5F1F6
:1002200020050EF1200E012A03FA0EFC28BF4CF027
:10023000020C43FA05F3C01851EBE37101F00045DD
:1002400007D54FF0000EDCF1000C7EEB00006EEBEA
:100250000101B1F5801F1BD3B1F5001F0CD3490874
:100260005FEA30004FEA3C0C04F101044FEA4452CB
:1002700012F5800F80F09A80BCF1004F08BF5FEA52
:10028000500C50F1000041EB045141EA050130BD32
:100290005FEA4C0C404141EB0101013C28BFB1F544
:1002A000801FE9D291F0000F04BF01460020B1FA8F
:1002B00081F308BF2033A3F10B03B3F120020CDA62
:1002C0000C3208DD02F1140CC2F10C0201FA0CF040
:1002D00021FA02F10CE002F11402D8BFC2F1200CA5
:1002E00001FA02F120FA0CFCDCBF41EA0C0190405B
:1002F000E41AA2BF01EB0451294330BD6FEA0404A4
:100300001F3C1CDA0C340EDC04F11404C4F120028E
:1003100020FA04F001FA02F340EA030021FA04F3A0
:1003200045EA030130BDC4F10C04C4F1200220FAF7
:1003300002F001FA04F340EA0300294630BD21FA35
:1003400004F0294630BD94F0000F83F4801306BFFB
:1003500081F480110134013D4EE77FEA645C18BFEF
:100360007FEA655C29D094EA050F08BF90EA020F86
:1003700005D054EA000C04BF1946104630BD91EA7E
:10038000030F1EBF0021002030BD5FEA545C05D181
:100390004000494128BF41F0004130BD14F58004C0
:1003A0003CBF01F5801130BD01F0004545F0FE4134
:1003B00041F470014FF0000030BD7FEA645C1ABF69
:1003C000194610467FEA655C1CBF0B46024650EAA0
:1003D000013406BF52EA033591EA030F41F40021CC
:1003E00030BD00BF90F0000F04BF0021704730B552
:1003F0004FF4806404F132044FF000054FF0000127
:1004000050E700BF90F0000F04BF0021704730B5E7
:100410004FF4806404F1320410F0004548BF4042BC
:100420004FF000013EE700BF42004FEAE2014FEA11
:1004300031014FEA02701FBF12F07F4393F07F4FEC
:1004400081F06051704732F07F4208BF704793F0EF
:100450007F4F04BF41F40021704730B54FF4607402
:1004600001F0004521F000411CE700BF50EA010205
:1004700008BF704730B54FF000050AE050EA0102AE
:1004800008BF704730B511F0004502D5404261EB1E
:1004900041014FF4806404F132045FEA915C3FF45F
:1004A000D8AE4FF003025FEADC0C18BF03325FEAFC
:1004B000DC0C18BF033202EBDC02C2F1200300FAAD
:1004C00003FC20FA02F001FA03FE40EA0E0021FAD2
:1004D00002F11444BDE600BF70B54FF0FF0C4CF4C0
:1004E000E06C1CEA11541DBF1CEA135594EA0C0F72
:1004F00095EA0C0F00F0DEF82C4481EA030621EAAD
:100500004C5123EA4C5350EA013518BF52EA0335E7
:1005100041F4801143F4801338D0A0FB02CE4FF099
:100520000005E1FB02E506F00042E0FB03E54FF0C9
:100530000006E1FB03569CF0000F18BF4EF0010EC1
:10054000A4F1FF04B6F5007F64F5407404D25FEABD
:100550004E0E6D4146EB060642EAC62141EA555170
:100560004FEAC52040EA5E504FEACE2EB4F1FD0CB2
:1005700088BFBCF5E06F1ED8BEF1004F08BF5FEA30
:10058000500E50F1000041EB045170BD06F00046E2
:1005900046EA010140EA020081EA0301B4EB5C048F
:1005A000C2BFD4EB0C0541EA045170BD41F4801187
:1005B0004FF0000E013C00F3AB8014F1360FDEBFAC
:1005C000002001F0004170BDC4F10004203C35DA88
:1005D0000C341BDC04F11404C4F1200500FA05F30B
:1005E00020FA04F001FA05F240EA020001F00042AC
:1005F00021F0004110EBD37021FA04F642EB060122
:100600005EEA430E08BF20EAD37070BDC4F10C044B
:10061000C4F1200500FA04F320FA05F001FA04F20F
:1006200040EA020001F0004110EBD37041F10001FB
:100630005EEA430E08BF20EAD37070BDC4F1200506
:1006400000FA05F24EEA020E20FA04F301FA05F26E
:1006500043EA020321FA04F001F0004121FA04F216
:1006600020EA020000EBD3705EEA430E08BF20EAE6
:10067000D37070BD94F0000F0FD101F00046400020
:1006800041EB010111F4801F08BF013CF7D041EAA2
:10069000060195F0000F18BF704703F000465200A6
:1006A00043EB030313F4801F08BF013DF7D043EA77
:1006B0000603704794EA0C0F0CEA135518BF95EA2D
:1006C0000C0F0CD050EA410618BF52EA4306D1D1B4
:1006D00081EA030101F000414FF0000070BD50EAD3
:1006E000410606BF1046194652EA430619D094EA5D
:1006F0000C0F02D150EA013613D195EA0C0F05D147
:1007000052EA03361CBF104619460AD181EA03019A
:1007100001F0004141F0FE4141F470014FF0000052
:1007200070BD41F0FE4141F4780170BD70B54FF0ED
:10073000FF0C4CF4E06C1CEA11541DBF1CEA13556D
:1007400094EA0C0F95EA0C0F00F0A7F8A4EB05044F
:1007500081EA030E52EA03354FEA013100F0888046
:100760004FEA03334FF0805545EA131343EA12630F
:100770004FEA022245EA111545EA10654FEA0026C4
:100780000EF000419D4208BF964244F1FD0404F57D
:10079000407402D25B084FEA3202B61A65EB0305D9
:1007A0005B084FEA32024FF480104FF4002CB6EB96
:1007B000020E75EB030E22BFB61A754640EA0C0016
:1007C0005B084FEA3202B6EB020E75EB030E22BF56
:1007D000B61A754640EA5C005B084FEA3202B6EB97
:1007E000020E75EB030E22BFB61A754640EA9C0056
:1007F0005B084FEA3202B6EB020E75EB030E22BF26
:10080000B61A754640EADC0055EA060E18D04FEAE3
:10081000051545EA16754FEA06164FEAC30343EA83
:1008200052734FEAC2025FEA1C1CC0D111F4801F50
:100830000BD141EA00014FF000004FF0004CB6E749
:1008400011F4801F04BF01430020B4F1FD0C88BFE8
:10085000BCF5E06F3FF6AFAEB5EB030C04BFB6EBF3
:10086000020C5FEA500C50F1000041EB045170BDE6
:100870000EF0004E4EEA113114EB5C04C2BFD4EB13
:100880000C0541EA045170BD41F480114FF0000E97
:10089000013C90E645EA060E8DE60CEA135594EA13
:1008A0000C0F08BF95EA0C0F3FF43BAF94EA0C0F16
:1008B0000AD150EA01347FF434AF95EA0C0F7FF48B
:1008C00025AF104619462CE795EA0C0F06D152EADF
:1008D00003353FF4FDAE1046194622E750EA4106C3
:1008E00018BF52EA43067FF4C5AE50EA41047FF4D4
:1008F0000DAF52EA43057FF4EBAE12E74FF0FF3C39
:1009000006E000BF4FF0010C02E000BF4FF0010C09
:100910004DF804CD4FEA410C7FEA6C5C4FEA430C82
:1009200018BF7FEA6C5C1BD001B050EA410C0CBFD1
:1009300052EA430C91EA030F02BF90EA020F002033
:10094000704710F1000F91EA030F58BF994208BF9A
:1009500090422CBFD8176FEAE37040F00100704757
:100960004FEA410C7FEA6C5C02D150EA013C07D1AE
:100970004FEA430C7FEA6C5CD6D152EA033CD3D0F9
:100980005DF8040B704700BF8446104662468C46F3
:100990001946634600E000BF01B5FFF7B7FF002826
:1009A00048BF10F1000F01BD4DF808EDFFF7F4FF4F
:1009B0000CBF012000205DF808FB00BF4DF808EDDA
:1009C000FFF7EAFF34BF012000205DF808FB00BFFD
:1009D0004DF808EDFFF7E0FF94BF012000205DF81F
:1009E00008FB00BF4DF808EDFFF7CEFF94BF0120D4
:1009F00000205DF808FB00BF4DF808EDFFF7C4FFCD
:100A000034BF012000205DF808FB00BF4FEA410C15
:100A10007FEA6C5C02D150EA013C0AD14FEA430CF8
:100A20007FEA6C5C02D152EA033C02D14FF0000035
:100A300070474FF0010070474FEA410212F5001273
:100A400015D211D56FF47873B3EB625212D94FEA15
:100A5000C12343F0004343EA505311F0004F23FAFF
:100A600002F018BF404270474FF00000704750EA54
:100A7000013005D111F0004008BF6FF00040704711
:100A80004FF00000704700BF53B94AB9002908BFB2
:100A900000281CBF4FF0FF314FF0FF3000F09EB92F
:100AA000ADF1080C6DE904CE00F03CF8DDF804E08F
:100AB000DDE9022304B0704738B500220023044664
:100AC0000D46FFF77BFF28B920462946BDE8384090
:100AD00000F00AB8204605F1004100F005F8404258
:100AE00061EB410138BD00BFD0B500220B4B06467B
:100AF0000F46FFF7F1FC00F073F90446FFF772FCB4
:100B00000022074BFFF7E8FC02460B463046394609
:100B1000FFF72AFB00F064F92146D0BD0000F03D4C
:100B20000000F0412DE9F047089D0C46002B4ED106
:100B300094468C458646B2FA82F262D94AB1C2F135
:100B40002003914020FA03F30CFA02FC194300FA47
:100B500002FE4FEA1C47B1FBF7F407FB14111FFA22
:100B60008CF64FEA1E4343EA014304FB06F1994227
:100B70000AD91CEB030304F1FF3080F01081994285
:100B800040F20D81023C6344591AB1FBF7F007FBB8
:100B9000101100FB06F61FFA8EF343EA01439E4252
:100BA0000AD91CEB030300F1FF3180F0FA809E426A
:100BB00040F2F7806344023800219B1B40EA044066
:100BC0001DB1D3400022C5E90032BDE8F0878B4259
:100BD00005D90DB1C5E9000100210846F5E7B3FAD2
:100BE00083F1002946D1A34202D39042C0F0EE80A7
:100BF000861A64EB03030120002DE6D0C5E90063EB
:100C0000E3E7002A40F08F80A1EB0C0401214FEABA
:100C10001C481FFA8CF7B4FBF8F608FB164407FBD8
:100C200006F04FEA1E4343EA0443984208D91CEBFE
:100C3000030306F1FF3402D2984200F2CB8026462D
:100C40001C1AB4FBF8F008FB104400FB07F71FFA6E
:100C50008EF343EA04439F4208D91CEB030300F1DF
:100C6000FF3402D29F4200F2AE802046DB1B40EAF6
:100C70000640A5E7C1F120078B4022FA07FC4CEAA9
:100C8000030C24FA07F64FEA1C49B6FBF9F81FFAE1
:100C90008CFE09FB186620FA07F38C4000FA01FA73
:100CA00008FB0EF01C43230C43EA0643984202FA69
:100CB00001F20AD91CEB030308F1FF3680F08180B2
:100CC00098427ED9A8F1020863441E1AB6FBF9F3D4
:100CD00009FB136603FB0EFEA4B244EA0644A645D4
:100CE00008D91CEB040403F1FF3066D2A64564D991
:100CF000023B644443EA0840A0FB0283A4EB0E04D9
:100D00009C42C6461E4650D34DD055B1BAEB0E0399
:100D100064EB060404FA07F7CB401F43CC40C5E957
:100D20000074002151E70CFA02FCC2F12003D94003
:100D30004FEA1C4820FA03F300FA02FEB1FBF8F078
:100D400008FB101194401C431FFA8CF7230C43EA54
:100D5000014300FB07F1994208D91CEB030300F1A2
:100D6000FF362CD299422AD9023863445B1AB3FB6E
:100D7000F8F108FB1133A4B244EA034401FB07F382
:100D8000A34208D91CEB040401F1FF3613D2A3429D
:100D900011D902396444E41A41EA00413BE70446B0
:100DA000F2E6084608E7C245AFD2B8EB020E63EBA5
:100DB0000C060138A9E73146EDE703469AE73046CD
:100DC000D4E7B04681E7634402384FE7064623463E
:100DD000084611E7023E634432E700BF704700BF98
:100DE0004A0011D212F5001211D20DD56FF47873AA
:100DF000B3EB62520ED44FEAC12343F0004343EAFF
:100E0000505323FA02F070474FF00000704750EA49
:100E1000013002D14FF0FF3070474FF000007047B3
:100E2000002B2DE9F0471D46BBBF03F100431D46D3
:100E300000232D2388B01446B8BF1446129A109E82
:100E40001370149BDDF84CA023F02008B8F1460F76
:100E500005D0B8F1450F00D10136022300E003238D
:100E600007AA049206AACDE902A2CDE900362246DD
:100E70002B4600F049FEB8F1470F074619D1119BE8
:100E8000DB070ED500EB0609002200232046294689
:100E9000FFF78AFD08B1CDF81C903022079B4B4527
:100EA0001ED33846079B159ADB1B136008B0BDE8BC
:100EB000F087B8F1460F00EB0609E5D10378302B37
:100EC0000AD10022002320462946FFF76DFD18B9FC
:100ED000C6F10106CAF80060DAF800309944D3E799
:100EE000591C07911A70D9E7F7B50029B6BF2D2311
:100EF0002B23494209290270437029DD0DF10703B4
:100F00001D460A27B1FBF7F61A4607FB16143034C4
:100F100002F8014C0C46632C314603F1FF33F1DC3F
:100F20003031941E03F8011C2346411CAB420AD306
:100F30000DF109039B1AAC4288BF0023023303441E
:100F4000181A03B0F0BD13F8016B01F8016FEDE75B
:100F5000302330318370C170031DF1E72DE9F04F6C
:100F600091B00C46DDF8688016461F46054600F035
:100F7000C1FC036818460893FFF7EAF800230E93B4
:100F8000D8F800300990073323F0070303F1080273
:100F900094F818A0D4F800B0C8F80020D3E900896C
:100FA00029F000430B93CDF828804FF0FF32DDE9A4
:100FB0000A01C4E912899C4BFFF728FD70BBDDE9EB
:100FC0000A014FF0FF32984BFFF702FD30BB0022C1
:100FD000002340464946FFF7F1FC10B12D2384F869
:100FE0004330924A924BBAF1470F94BF90469846CD
:100FF00003234FF0000923612BF0040323603346E1
:101000002146284600970FAA00F0D4F9013040F09D
:1010100090804FF0FF3011B0BDE8F08F42464B4654
:1010200040464946FFF7F2FC48B14B46002BB8BF9B
:101030002D23804AB8BF84F843307F4BD3E76368E1
:101040000AF0DF015A1C3FD10623636000224BF4F3
:101050008063236006920EAACDE904A20DAA039232
:101060000DF13302CDE90132636842460093284610
:101070004B460A91FFF7D4FE0A99804647290D99FD
:1010800028D1C81C02DB6368994240DDAAF1020A3C
:101090005FFA8AFA5246013904F150000D91FFF7C8
:1010A00023FF0E9A81461318012A236102DC22686D
:1010B000D20701D5013323619DF83330002B9ED038
:1010C0002D2384F843309AE74729BFD1002BBDD1A7
:1010D0000123BAE7BAF1650FDCD9BAF1660F18D16E
:1010E000002963680BDD216113B92268D00702D59E
:1010F00001330B4423614FF00009A165DCE713B90C
:101100002268D20701D50233F4E70123F2E74FF05A
:10111000670A0E9B994205DB23682161D807EAD54F
:101120004B1CE7E70029CCBF0122C1F102021344A6
:10113000E0E723685A0507D423694246314628462A
:10114000B84701302BD164E7BAF1650F40F2DC807B
:10115000D4E9120100220023FFF726FC002833D037
:10116000012331462846354AB84701303FF451AF94
:10117000DDE90D38434502DB2368D8070FD5DDE9EB
:10118000082331462846B84701303FF442AF4FF0BC
:10119000000908F1FF3804F11A0AC84509DC236880
:1011A0009B0700F10281E0680F9B9842B8BF184688
:1011B00031E70123524631462846B84701303FF413
:1011C00028AF09F10109E8E70D9B002B38DC01236A
:1011D00031462846194AB84701303FF41AAFDDE9D5
:1011E0000D3959EA030302D12368D907D7D5DDE9C0
:1011F000082331462846B84701303FF40AAF4FF084
:10120000000A04F11A0B0D9B5B42534501DC4B466F
:1012100093E701235A4631462846B84701303FF448
:10122000F8AE0AF1010AEEE7FFFFEF7F005F00086A
:10123000045F0008085F00080C5F0008105F0008EA
:10124000A36DDDF838A05345A8BF5346002B99463F
:1012500036DC4FF0000B29EAE97904F11A02A36D9C
:101260000A93A3EB09035B4531DC0D9B9A453ADCFD
:101270002368DA0737D40D9BAAEB03090A9BAAEB74
:1012800003039945A8BF9946B9F1000F33DC4FF02D
:10129000000829EAE97904F11A0B0D9BAAEB030374
:1012A000A3EB090343457FF77AAF01235A46314642
:1012B0002846B84701303FF4ACAE08F10108ECE72E
:1012C000424631462846B8470130C2D1A1E6012343
:1012D000314628460A92B84701303FF49AAE0A9A3E
:1012E0000BF1010BBBE73146DDE908232846B8477F
:1012F0000130C0D18DE60A9A4B4631462846424419
:10130000B8470130C3D184E6DDF838A0BAF1010F47
:1013100001DCDB0736D50123424631462846B84773
:1013200001303FF476AEDDE9082331462846B84760
:1013300001303FF46EAED4E91201002200230AF11D
:10134000FF3AFFF731FBC0B9534608F101023146BD
:101350002846B84701300CD15BE601235A46314696
:101360002846B84701303FF454AE08F10108D04593
:10137000F3DB4B4604F15002E0E64FF0000804F1C5
:101380001A0BF4E701234246E1E701234A463146BE
:101390002846B84701303FF43CAE08F10108E36845
:1013A0000F995B1A4345F0DCFDE64FF0000804F1AD
:1013B0001909F4E72DE9F047164698468A680B6943
:1013C00007469342B8BF1346336091F843200C465A
:1013D000DDF820900AB1013333602368990642BFDB
:1013E000336802333360256815F0060506D104F131
:1013F000190AE36832689B1AAB422BDC94F843303D
:101400002268003B18BF0123920630D4414638467B
:1014100004F14302C847013023D02368226903F056
:101420000603042B14BF002533684FF0000608BFE5
:10143000E56804F11A0408BFED1A54F8123C08BF1D
:1014400025EAE5759342C4BF9B1AED18B5421AD13F
:10145000002008E00123524641463846C847013083
:1014600003D14FF0FF30BDE8F0870135C1E73020F0
:10147000E11881F843005A1C94F8451022440233C5
:1014800082F84310C2E70123224641463846C84746
:101490000130E6D00136D9E72DE9FF470F7E9146AE
:1014A000782F80460C469A460C9E01F1430207D8DD
:1014B000622F0AD8002F00F0D380582F00F0BA8096
:1014C00004F1420684F842703AE0A7F16303152B59
:1014D000F6D801A151F823F0311500084515000890
:1014E000C1140008C1140008C1140008C114000888
:1014F00045150008C1140008C1140008C1140008F3
:10150000C1140008471600086F15000801160008EE
:10151000C1140008C114000869160008C1140008AD
:101520006F150008C1140008C1140008091600084E
:1015300033681A1D1B68326004F1420684F8423099
:1015400001239EE033682068191D3160060601D52D
:101550001D6803E04506FBD5B3F90050002D03DA02
:101560002D236D4284F843300A23594811E0216845
:101570003368080653F8045B02D4490648BFADB28D
:101580006F2F336014BF0A2308235148002184F8C9
:1015900043106668002EA8BF2168A660A4BF21F092
:1015A000040121600DB9002E4BD01646B5FBF3F1B6
:1015B00003FB1157C75D06F8017D2F46BB420D4660
:1015C000F4D9082B0BD12368DF0708D5236961689C
:1015D0009942DEBF302306F8013C06F1FF36921B2C
:1015E00022614B4621464046CDF800A003AAFFF7F2
:1015F000E1FE01304AD14FF0FF3004B0BDE8F08782
:10160000236843F0200323607827324884F845702C
:10161000236831681F0651F8045B02D45F0648BF97
:10162000ADB23160D90744BF43F0200323601DB140
:101630001023ABE72648E9E7236823F02003236063
:10164000F6E71646BDE733682568181D6169306006
:101650002E061B6801D5196002E06806FBD51980CB
:10166000002316462361BCE7336800211A1D32604F
:101670001E686268304600F0AEF908B1801B6060F9
:1016800063682361002384F84330AAE73246494661
:1016900040462369D0470130ADD023689B0713D45F
:1016A000E068039B9842B8BF1846A6E7012332467C
:1016B00049464046D04701309DD00135E368039943
:1016C0005B1AAB42F2DCEBE7002504F11906F5E703
:1016D000125F0008235F0008002310B50446C0E92C
:1016E0000033C0E90433836081814366C281836132
:1016F000194608225C3000F0F4F80D4B2462636256
:101700000C4BA3620C4BE3620C4B23630C4B9C42CF
:1017100006D003F16802944202D0D0339C4205D136
:1017200004F15800BDE8104000F052B910BD00BFF0
:101730005D1800087F180008B7180008DB180008BB
:101740008C020020024A0349034800F069B800BF38
:1017500000000020953000081000002041680C4B6C
:1017600010B59942044601D001F094FCA168094BE0
:10177000994202D0204601F08DFCE168064B994267
:1017800004D02046BDE8104001F084BC10BD00BF6D
:101790008C020020F40200205C03002010B50B4BEB
:1017A0000B4C0C4A20461A6004210022FFF794FFDC
:1017B00004F1680001220921FFF78EFF04F1D00037
:1017C0000222BDE810401221FFF786BFC4030020AB
:1017D0008C02002045170008014800F0FAB800BF4D
:1017E000CD030020014800F0F5B800BFCD03002074
:1017F00010B50446FFF7F0FF236A1BB1BDE81040A7
:10180000FFF7F0BF044B2362044B1B68002BF5D19C
:10181000FFF7C4FFF2E700BF5D170008C403002014
:101820002DE9F8430746884614460026D4E9019579
:10183000B9F1010905D52468002CF7D13046BDE87F
:10184000F883AB89012B07D9B5F90E30013303D0EA
:1018500029463846C04706436835E9E710B50C46C7
:10186000B1F90E1000F06CF80028ABBF636DA389CE
:101870001B1823F48053ACBF6365A38110BD2DE911
:10188000F0411F468B890546DB050C46164605D5FB
:1018900002230022B1F90E1000F040F8A38932466D
:1018A00023F48053A38128463B46B4F90E10BDE8CB
:1018B000F04100F057B810B50C46B1F90E1000F029
:1018C0002DF8431CA38915BF606523F4805343F4AE
:1018D0008053A38118BFA38110BDB1F90E1000F091
:1018E0000DB803460244934200D1704703F8011B30
:1018F000F9E70000004870474C01002038B500238C
:10190000054D044608462B6002F0AAFC431C02D198
:101910002B6803B1236038BDC803002038B50446E6
:10192000084611460022054D2A601A4602F0A2FC24
:10193000431C02D12B6803B1236038BDC8030020CB
:1019400038B50446084611460022054D2A601A465D
:1019500002F068FC431C02D12B6803B1236038BD40
:10196000C803002038B50446084611460022054D3C
:101970002A601A4602F066FC431C02D12B6803B1B0
:10198000236038BDC803002070B500260C4D0D4CF7
:10199000641BA410A64209D104F0A6FA00260A4D41
:1019A0000A4C641BA410A64205D170BD55F8043B37
:1019B00098470136EEE755F8043B98470136F2E7C1
:1019C000E8630008E8630008E8630008EC630008C7
:1019D000704770477047034610B5C9B2024493423E
:1019E000184601D1002003E0047801338C42F6D17F
:1019F00010BD2DE9F74F03690C690746A3427EDB52
:101A0000013CA30000F1140501F11408009305EB5B
:101A10008403019358F8243055F8242001339A4266
:101A2000B2FBF3F608EB84092ED34FF0000AC4464C
:101A3000AE46D3465CF8043B98B206FB00A01B0CF4
:101A4000020C06FB0323DEF8002080B292B2121AC9
:101A50005A44DEF800004FEA134A9BB2C3EB22431C
:101A600003EB104392B242EA0342E1454FEA234BB3
:101A70004EF8042BDED2009BEB582BB9019B043BA4
:101A80009D421A462FD33C61384601F07BF900286D
:101A900025DB2946002058F8042BD1F800C01FFA96
:101AA00082FE1FFA8CF3A3EB0E030344120CC2EB6D
:101AB000234202EB1C429BB243EA0243C1454FEA78
:101AC000224041F8043BE6D255F8242005EB84037C
:101AD00022B9043B9D421A460BD33C610136304685
:101AE00003B0BDE8F08F1268043B002ACBD1013C63
:101AF000C6E71268043B002AEFD1013CEAE7002068
:101B0000EEE70000000000002DE9F04F14461D46EE
:101B1000C76997B08346CDE90245239E7FB910205F
:101B200000F002FE0246CBF81C0020B9EF21A84BC2
:101B3000A84801F0F5FAC0E901770760C760DBF853
:101B40001C30196859B15A68012393404A608B6070
:101B5000584600F0DFFE0022DBF81C301A602B1E16
:101B6000AFBF0023012223F000430393A8BF3360DB
:101B7000DDF80C80984BB8BF326033EA080312D10D
:101B800042F20F73229A1360C8F31303234300F049
:101B90005085249BDFF844A2002B00F052850AF107
:101BA000030300F04CBDDDE90223CDE90C23DDE9A0
:101BB0000C0100220023FEF7F7FE074658B101236F
:101BC000229A1360249B13B1854B249A1360DFF88B
:101BD00014A200F036BD14AB019315AB0093584628
:101BE000DDE90C2301F07EF9C8F30A568146002E88
:101BF00077D0DDE90C010D9BA6F2FF36C3F313038A
:101C000043F07F5343F44013129719460022764B5A
:101C1000FEF7AAFA68A3D3E90023FEF75DFC68A3E8
:101C2000D3E90023FEF7A2FA044630460D46FEF73C
:101C3000E9FB65A3D3E90023FEF74EFC02460B4601
:101C400020462946FEF792FA04460D46FEF7F4FEBA
:101C500000220746002320462946FEF7AFFE40B18A
:101C60003846FEF7CFFB22462B46FEF79DFE00B915
:101C7000013F162F53D8DDE90C015C4B03EBC70382
:101C8000D3E90023FEF79AFE00284AD00023013F43
:101C90000F93149B9B1B5A1E46BFC3F101080023E0
:101CA0004FF00008099248BF0993002F3BDB099BC6
:101CB0000E973B44099300230A93209B092B66D877
:101CC000052BC4BF043B2093209BC8BF0024A3F175
:101CD0000203D8BF0124032B64D8DFE803F02B38BC
:101CE0003656DDE914631E4406F23243202BC1BF91
:101CF000C3F1400308FA03F806F2124324FA03F38F
:101D0000D6BFC3F1200348EA030004FA03F0FEF74C
:101D100069FB0122A1F1F873013E129275E70123DC
:101D2000B6E70F90B5E77B420A930023A8EB0708BC
:101D30000E93C2E700230B93219B002B35DC01237C
:101D40001A46CDE9073321920BE00123F3E7002384
:101D50000B93219BFB1808930133012B0793B8BF0A
:101D6000012300210422DBF81C0002F114059D422E
:101D70001FD94160584600F08DFD8246002839D1B8
:101D8000024640F2AF111A4BD2E60123E0E70124EC
:101D900000230B9420934FF0FF330022CDE907334B
:101DA0001223D0E701230B93F5E7219BCDE90733FD
:101DB000D7E701315200D8E761436F63A787D23F6D
:101DC000B3C8608B288AC63FFB799F501344D33F2A
:101DD000415F0008585F00080000F07F3D5F000889
:101DE000115F0008105F00080000F83F5060000815
:101DF000B05F0008DBF81C301860079B0E2B00F268
:101E0000A480002C00F0A180002F33DD864B07F06A
:101E10000F0203EBC203F805D3E90034CDE9043423
:101E20004FEA271416D5DDE90C01804B0326D3E9D0
:101E30000823FEF77BFCCDE9020104F00F047B4D83
:101E400054B9DDE90423DDE90201FEF76FFCCDE9B9
:101E5000020128E00226F2E7E10708D5DDE90401E6
:101E6000D5E90023FEF738FBCDE904010136641003
:101E70000835E5E700F0D280DDE90C017C426A4BD1
:101E800004F00F0203EBC203D3E90023FEF724FBA7
:101E900002260023CDE90201644D2411002C40F0FC
:101EA000B280002BD3D1DDE902450F9B002B00F05F
:101EB000B7800022204629465D4BFEF77FFD0028B3
:101EC00000F0AE80079B002B00F0AA80089B002B3F
:101ED00037DD7B1E2046049300222946554BFEF732
:101EE000FBFACDE90201089C01363046FEF78AFA7A
:101EF000DDE90223FEF7F0FA00224F4BFEF736F938
:101F00000546A1F15076002C40F09A80DDE90201EF
:101F100000224A4BFEF728F902460B46CDE9022380
:101F20002A463346FEF768FD002840F08E82DDE940
:101F300002012A4606F10043FEF740FD002840F06A
:101F40002781DDE90C34CDE90234159B002BC0F26A
:101F500063810E2F00F36081334B03EBC703D3E99A
:101F60000034CDE90434219B002B03DA079B002BBE
:101F700040F30081DDE902455646DDE904232046B1
:101F80002946FEF7D3FBFEF757FD8046FEF73AFAE7
:101F9000DDE90423FEF7A0FA02460B462046294657
:101FA000FEF7E2F808F13004079D06F8014BA6EBB6
:101FB0000A04A54202460B4640F01681FEF7D6F809
:101FC000DDE9042304460D46FEF716FD002840F027
:101FD000F880DDE9042320462946FEF7E5FC18B128
:101FE00018F0010F40F0ED804946584600F092FC91
:101FF00000233370229B01371F60249B002B00F0CD
:1020000020831E601DE3E20705D5D5E90023FEF716
:1020100063FA01230136641008353FE7022642E7E0
:10202000079C049761E700BF506000082860000823
:102030000000F03F0000244000001C40000014405D
:10204000704B0B9903EBC40353E90223544400295A
:1020500045D000206C49FEF769FB33462A46FEF75F
:1020600083F85646CDE91001DDE90201FEF7E4FCF4
:102070000546FEF7C7F902460B46DDE90201FEF709
:1020800073F802460B463035CDE90223DDE9102313
:1020900006F8015BFEF792FC002863D1DDE902231C
:1020A00000205A49FEF760F8DDE91023FEF786FCB0
:1020B000002840F08780A6423FF443AFDDE91001DD
:1020C0000022534BFEF708FA0022CDE91001DDE9AA
:1020D00002014F4BFEF700FACDE90201C4E7314699
:1020E0002846FEF7F9F95646CDE910011394DDE9CB
:1020F0000201FEF7A1FC0546FEF784F902460B46F5
:10210000DDE90201FEF730F802460B46303506F8ED
:10211000015BA642CDE902234FF0000224D1DDE9A4
:102120001001394BFEF722F802460B46DDE90201A9
:10213000FEF762FC002845D1DDE91023002032497A
:10214000FEF712F802460B46DDE90201FEF736FC07
:1021500000283FF4F6AE139E731E139316F8013C4D
:10216000302BF8D0049F3FE7294BFEF7B5F9CDE9B6
:102170000201BCE70CD1DDE904010022254BFEF78A
:10218000ABF9DDE90223FEF72DFC002800F05B81AE
:1021900000242546219B5646DB4304930027214615
:1021A000584600F0B7FB002DDCD02FB1AF4203D072
:1021B0003946584600F0AEFB2946584600F0AAFBC7
:1021C000D0E7049733461E4613F8012D392A07D16C
:1021D0009A45F8D1049A0132049230228AF80020FC
:1021E0001A7801321A70BDE70022094BFEF774F924
:1021F0000022002304460D46FEF7D6FB00283FF4DC
:10220000BCAEF1E6506000080000E03F0000F03F87
:1022100000002440000014400B9A002A00F0DB80EC
:10222000209A012A00F3BF80129A002A00F0B7809A
:1022300003F2334346460A9C099A01211A44584640
:102240009844099200F01AFC05465EB1099B002BE8
:1022500008DDB342A8BF3346099AA8EB0308F61A73
:10226000D31A09930A9BF3B10B9B002B00F0B780A4
:102270008CB129462246584600F0BEFC4A4601462B
:102280000546584600F010FC49460490584600F0B8
:1022900041FB049B99460A9B1A1B04D049465846A9
:1022A00000F0AAFC81460121584600F0E7FB0E9B96
:1022B0000446002B00F0C9811A460146584600F03A
:1022C0009BFC209B0446012B00F38F80029B002B7C
:1022D00040F08780039BC3F31303002B40F08380FF
:1022E000039B23F000431B0D1B052BB1099B08F139
:1022F00001080133099301230A930E9B002B00F080
:10230000AA81236904EB8303186900F06BFBC0F119
:102310002000099B184410F01F0071D0C0F1200369
:10232000042B65DD099BC0F11C0003448044064476
:102330000993B8F1000F05DD49464246584600F0C2
:10234000B5FC8146099B002B05DD21461A465846FF
:1023500000F0ACFC04460F9B002B53D021464846AE
:1023600000F010FD00284DDA7B1E494604930A2236
:102370000023584600F0F0FA0B9B8146002B00F03A
:102380006C81002329460A22584600F0E5FA089B92
:102390000546002B61DC209B022B3BDC5DE0149B9F
:1023A000C3F1360346E7079B5C1E0A9BA342BFBFEF
:1023B0000A9B0E9AE31AD218A8BF1C1B079BBEBF2C
:1023C0000A940E920024002BB5BFA8EB03064646E4
:1023D0000023079B30E746460A9C0B9D35E70A9A87
:1023E0005CE7002388E7029B86E700230A9388E7DF
:1023F0009FD0099A1C331A4498441E44099298E7C6
:102400000346F6E7079B0497002B20DC0893209BEC
:10241000022B1EDD089B002B7FF4BCAE214605225B
:10242000584600F099FA01460446484600F0AAFCD6
:1024300000287FF7AFAE3123564606F8013B049BD8
:1024400001330493AAE6079C04972546F3E7079B0C
:1024500008930B9B002B00F00481002E05DD29461C
:102460003246584600F022FC05460A9B002B5AD003
:102470005846696800F00EFA064628B9024640F24E
:10248000EF21834BFFF754BB2A6905F10C0102329F
:1024900092000C3000F036FE01223146584600F022
:1024A00005FC2F4605460AF101030793089B534498
:1024B0000B93029B03F001030A93079B2146013B08
:1024C00048460293FFF795FA3946089000F1300824
:1024D000484600F057FC2A4609902146584600F02D
:1024E0006DFCC268064602BB0146484600F04AFC45
:1024F0000246314658460C9200F00CFA209B0C9A8A
:10250000079E43EA02010A9B194310D1B8F1390F23
:1025100029D0099B002B02DD089B03F13108029BA7
:1025200083F800803BE62846BBE70122E1E7099BF0
:10253000002B04DB20990B430A990B4320D1002A7E
:10254000EDDD49460122584600F0B0FB21468146A8
:1025500000F018FC002803DCE1D118F0010FDED0F8
:10256000B8F1390FD8D13923029A137033461E4679
:1025700016F8012C013B392A52D001321A700EE6AE
:10258000002A07DDB8F1390FEDD0029A08F10103F6
:10259000137004E6079B079A03F8018C0B9B934288
:1025A00028D0494600230A22584600F0D5F9AF4208
:1025B00081464FF000034FF00A023946584607D1D2
:1025C00000F0CAF907460546079B0133079374E7F5
:1025D00000F0C2F92946074600230A22584600F0B7
:1025E000BBF90546F0E7089B0027002BCCBF1E4631
:1025F0000126564449460122584600F057FB214621
:10260000814600F0BFFB0028B0DC02D118F0010FBA
:10261000ACD133461E4613F8012D302AFAD0BEE560
:102620009A45A4D1049B0133049331238AF80030E6
:10263000B5E5249BDFF85CA01BB10AF10803249ADE
:102640001360504617B0BDE8F08F209B012B7FF739
:102650003DAE0E9B0A9301205BE6089B002B7FF7A3
:10266000D6AE564621464846FFF7C3F900F130087A
:10267000089B06F8018BA6EB0A029342B3DD49469C
:1026800000230A22584600F067F98146EAE700BFB6
:10269000B05F0008345F000838B50546002940D017
:1026A00051F8043C0C1F002BB8BFE41800F0E6F80A
:1026B0001C4A136833B9636014602846BDE838408B
:1026C00000F0E2B8A34208D9206821188B4201BF6C
:1026D00019685B6809182160EDE71A465B680BB161
:1026E000A342FAD911685018A0420BD120680144C6
:1026F000501883421160E0D118685B68084410608C
:102700005360DAE702D90C232B60D6E72068211842
:102710008B4201BF19685B680918216063605460CF
:10272000CBE738BDD4030020024B0146186800F007
:1027300025B800BF0C00002070B50F4E0C46316864
:10274000054611B900F0CEFC30602146284600F065
:10275000C9FC431C03D14FF0FF34204670BDC41C9C
:1027600024F00304A042F8D0211A284600F0BAFC55
:102770000130F2D1EFE700BFD00300202DE9F8438C
:10278000CD1C25F0030508350C2D38BF0C25002D78
:10279000064601DBA94204D90C2333600020BDE8C2
:1027A000F883DFF8D48000F069F8D8F800301C46D0
:1027B00044BB29463046FFF7BFFF431C044658D1AF
:1027C000D8F800402746002F43D1002C4BD0236877
:1027D0003946304604EB030900F084FC814542D1C0
:1027E000216830466D1A2946FFF7A6FF01303AD01E
:1027F00023682B442360D8F800305A6862BBC8F8BD
:1028000000700FE02268521B20D40B2A17D96119DF
:10281000A342256018BF5960636808BFC8F800105C
:1028200062514B60304600F02FF804F10B00231D7D
:1028300020F00700C21A1CBF1B1AA350AFE7626842
:10284000A3420CBFC8F800205A60EBE72346646837
:10285000AEE73C467F68B6E71A465B68A342FBD109
:1028600000235360DEE70C233046336000F00CF8A1
:1028700094E70560D6E700BFD40300200148FFF7C6
:10288000A8B800BFCC0300200148FFF7A3B800BFE1
:10289000CC03002070B5C66904460D4676B91020F9
:1028A000FFF742FF0246E06120B96B21174B184841
:1028B00000F036FCC0E901660660C660E669F368B0
:1028C00083B1E369DB6853F82500B8B9012101FA47
:1028D00005F6721D2046920000F040FC60B1C0E990
:1028E00001560EE021220421204600F037FCE36966
:1028F000F060DB68002BE4D1002070BD026843F873
:1029000025200023C0E90333F7E700BF415F00083B
:10291000C15F000870B5C66905460C4676B910203F
:10292000FFF702FF0246E86120B98F21084B0948F2
:1029300000F0F6FBC0E901660660C6603CB1EB69D9
:102940006268DB6853F82210216043F8224070BDB2
:10295000415F0008C15F00082DE9F04107460C46C1
:102960001E4600200D6901F1140CDCF80030013026
:1029700099B202FB01611E0C0B0C02FB063389B2FB
:1029800001EB034185424FEA13464CF8041BECDC93
:102990000EB3A368AB4219DC616838460131FFF71A
:1029A00079FF804628B90246BA210C4B0C4800F04A
:1029B000B7FB226904F10C01023292000C3000F0E6
:1029C000A1FB21463846FFF7A5FF444604EB8503EB
:1029D00001355E6125612046BDE8F081B05F0008E9
:1029E000C15F00080346B0F5803F3ABF03041020E2
:1029F0000020B3F1807F3CBF1B020830B3F1805F41
:102A00003CBF1B010430B3F1804F3CBF9B00023040
:102A1000002B05DB13F0804F00F1010008BF2020E0
:102A200070470368024613F007000BD0D90721D482
:102A3000980749BF5B089B08012013605CBF022018
:102A40001360704799B209B910201B0CD9B209B9AB
:102A500008301B0A190704BF1B090430990704BF7B
:102A60009B080230D90703D45B0800F1010003D0B2
:102A700013607047002070472020704710B50C4647
:102A80000121FFF707FF024628B940F24511044B28
:102A9000044800F045FB01234461036110BD00BF01
:102AA000B05F0008C15F00082DE9F04F14460A69C5
:102AB00023690F469A42A2BF23460C461F46D4F80C
:102AC00010A0D7F81090A36861680AEB0906B3421A
:102AD00085B0B8BF0131FFF7DDFE30B902464FF4D3
:102AE000B171434B434800F01BFB00F114052B462A
:102AF000002205EB8608434521D307F1140104F1B8
:102B0000140202EB8A0201EB89030293131B153BAB
:102B100023F00303043304F11507BA4238BF04233A
:102B20000193029B03918B420CD8002E03DD58F8D1
:102B3000043D002B5AD0066105B0BDE8F08F43F884
:102B4000042BD8E7B1F800A0BAF1000F23D0A946B2
:102B50004FF0000C04F1140E5EF8047BD9F800303D
:102B60001FFA87FB9BB20AFB0B336344D9F800C002
:102B70003F0C4FEA1C4C0AFB07C707EB13479BB2FD
:102B800043EA074372454FEA174C49F8043BE3D840
:102B9000019B45F803C0039B0431B3F80290B9F1DF
:102BA000000F21D0AE464FF0000A2B6804F1140C40
:102BB000BCF800B0BEF802709BB209FB0B7757441B
:102BC00043EA07434EF8043B5CF8043B4FEA134AE0
:102BD000BEF80030624509FB0A3303EB17434FEAA6
:102BE000134AE5D8019FEB5104359AE7013E9CE773
:102BF000B05F0008C15F00082DE9F843154612F0E8
:102C0000030207460E4607D0254C013A002354F82C
:102C10002220FFF7A1FE0646AD103DD0FC697CB92D
:102C20001020FFF781FD0246F86128B940F2B31188
:102C30001C4B1D4800F074FAC0E901440460C460F4
:102C4000D7F81C80D8F808404CB940F271213846BA
:102C5000FFF714FF00230446C8F8080003604FF094
:102C60000009EB070AD5314622463846FFF71CFF1C
:102C7000804631463846FFF74DFE46466D100BD074
:102C8000206838B9224621463846FFF70DFF2060FC
:102C9000C0F800900446E4E73046BDE8F88300BF82
:102CA0001C600008415F0008C15F00082DE9F04783
:102CB0000C46074691462369496803EB6218A368EE
:102CC0004FEA621A08F10106B3420BDB3846FFF700
:102CD000E1FD054648B902464FF4EF71274B2848FD
:102CE00000F01EFA01315B00EEE7002300F1140151
:102CF00000F110021846534533DB20692AEAEA7ACC
:102D000004F1140319F01F0901EB8A0103EB800C95
:102D10002BD08A460022C9F1200E186800FA09F06B
:102D200010434AF8040B53F8042B9C4522FA0EF288
:102D3000F3D8ACEB0403153B23F00303043304F195
:102D40001500844538BF0423CA500AB108F10206B1
:102D5000013E384621462E61FFF7DCFD2846BDE8DE
:102D6000F08742F8040F0133C5E7043953F8042B08
:102D70009C4541F8042FF9D8EAE700BFB05F00088E
:102D8000C15F000803460A69006930B5801A0ED198
:102D90001433143103EB820401EB820154F8045D17
:102DA00051F8042D954203D005D24FF0FF3030BDCD
:102DB000A342F3D3FBE70120F9E700002DE9F74F29
:102DC00089460646114648461446FFF7DBFF051EB6
:102DD00012D129463046FFF75DFD024628B940F280
:102DE00037213E4B3E4800F09BF90123C0E90435F2
:102DF000104603B0BDE8F08FBCBF4B46A14630463D
:102E0000D9F80410BABF1C4601250025FFF742FD82
:102E1000024618B940F24521304BE3E700F1140BAC
:102E2000D9F8107009F11003C5604FF0000C09F1DA
:102E30001405D946266904F1140E05EB87080EEB3C
:102E400086060193019B5EF8040B53F804AF81B230
:102E500001931FFA8AF35B1A000C6344C0EB1A401B
:102E600000EB23409BB243EA004376454FEA204CF7
:102E700049F8043BE6D8331B153B23F00303153414
:102E80000433A64238BF04231D445B441E462C462F
:102E900044450ED308F10301491B21F00301033D12
:102EA000A84538BF00210B4453F8041D99B11761A0
:102EB0009EE7E64654F8041B1FFA81FCF444080C14
:102EC000714400EB2C4089B241EA00414FEA204CAA
:102ED00046F8041BDCE7013FE6E700BFB05F0008EF
:102EE000C15F00082DE97343012190469946089E71
:102EF000FFF7D0FC044630B9024640F20F31234BB5
:102F0000234800F00DF9C9F30A55C9F313030DB1B5
:102F100043F480130193B8F1000324D06846009372
:102F2000FFF77FFDDDE90012D8B1C0F1200302FAFE
:102F300003F30B43C24063610192019B002B0CBF62
:102F400001220222A3612261ADB1A5F233450544FD
:102F50003560C0F13500099B1860204602B0BDE81D
:102F600070836161E9E701A8FFF75BFD019B012226
:102F700063612030E7E7A0F2324004EB8203306067
:102F80001869FFF72FFDC0EB4210E4E7B05F0008BF
:102F9000C15F0008B1F90C20F8B5160705460C46CC
:102FA00054D44B68002B02DC0B6C002B48DDE66A26
:102FB000002E45D0002312F480522F68216A2B6026
:102FC00030D0626DA389590705D56368D21A636B47
:102FD0000BB1236CD21A00232846E66A216AB04757
:102FE000431CA38906D129681D292BD8284A0A41E8
:102FF000D60727D4002262602269D904226004D552
:10300000421C01D12B6803B96065616B2F60B9B1B7
:1030100004F14403994202D02846FFF73DFB002308
:1030200063630DE001232846B0470246501CC9D116
:103030002B68002BC6D01D2B01D0162B1DD12F6065
:10304000002021E043F040031BB21AE00F69002F7B
:10305000F6D0930718BF00230E6808BF4B69F61B14
:103060000F608B60002EEBDD33463A462846216A1E
:10307000D4F828C0E047002807DCB4F90C3043F04E
:1030800040034FF0FF30A381F8BD0744361AE9E74B
:10309000FEFFBFDF38B50B6905460C4613B90025A6
:1030A000284638BD18B1036A0BB9FEF7A1FBB4F985
:1030B0000C30002BF3D0626ED00704D4990502D4F3
:1030C000A06DFEF786FC28462146FFF763FF636E7E
:1030D0000546DA07E4D4A3899B05E1D4A06DFEF789
:1030E00079FCDDE738B50023054D044608462B6022
:1030F00001F0C2F8431C02D12B6803B1236038BD34
:10310000C80300200A44914200F1FF3300D1704708
:1031100010B511F8014B914203F8014FF9D110BDE0
:103120001FB514461A46094B05461B68D86854B9A2
:10313000074B1C46CDE9013400912B46054900F0B0
:1031400041F800F051F8044BF4E700BF0C000020F8
:103150005D6100082F6100082261000870B5A1FBC5
:1031600002543CB92946FFF709FB064628B9002658
:10317000304670BD0C220260F9E72A462146FEF770
:10318000B0FBF5E782B001B901A942B14BB11378A8
:103190000B601278101E18BF012002B07047104655
:1031A000FBE76FF00100F8E70346084641B1FF2A4C
:1031B00004D98A224FF0FF301A60704701200A704C
:1031C000704700000EB403B5014603AB054853F841
:1031D000042B0068019300F035F802B05DF804EBB1
:1031E00003B070470C000020062008B500F0FEF97F
:1031F000012001F011F8936810B4013B002B93609B
:1032000007DA9469A34201DB0A2902D110BC00F05D
:1032100031B91368581C10601970084610BC70470B
:10322000F8B506460F461446D518AC4201D1002029
:1032300007E03A46304614F8011BFFF7DCFF431C59
:10324000F3D1F8BD2DE9F04F0D46144698460646D9
:103250009DB018B1036A0BB9FEF7CAFA6B6ED907B5
:1032600005D4AB899A0502D4A86DFEF7B2FBAB89F1
:103270001B0701D52B699BB92946304600F038F968
:1032800070B16B6EDC0704D54FF0FF301DB0BDE8A8
:10329000F08FAB899805F7D4A86DFEF79BFBF3E799
:1032A0000023099320238DF8293030234FF00109A2
:1032B000CDF80C80DFF8A8818DF82A3023469A4695
:1032C00013F8012B0AB1252AF9D1BAEB040B0BD064
:1032D0005B46224629463046FFF7A2FF013000F048
:1032E000A780099A5A4409929AF80030002B00F0FE
:1032F0009F8000234FF0FF32CDE905230AF1010A38
:10330000049307938DF853301A935446052214F80A
:10331000011B5348FEF75FFB049AD8B9D10644BF9E
:1033200020238DF85330130744BF2B238DF85330DF
:103330009AF800302A2B15D0544600204FF00A0C82
:10334000079A214611F8013B303B092B4BD9B0B10C
:10335000079214E0A0EB080309FA03F31343A24613
:103360000493D2E7039B191D1B680391002BBBBF7D
:103370005B4242F0020207930793B8BF049223789E
:103380002E2B0AD163782A2B32D1039B02341A1DCB
:103390001B68039243EAE3730593DFF8C8A0032296
:1033A00050462178FEF717FB38B14022049BA0EB72
:1033B0000A00824013430134049314F8011B0622CF
:1033C00029488DF82810FEF706FB00283FD0274B30
:1033D0001BBB039B073323F0070308330393099BAD
:1033E0003B4409936AE70C4601200CFB0232A8E734
:1033F00000234FF00A0C194601340593204610F8BB
:10340000012B303A092A03D9002BC6D00591C4E715
:10341000044601230CFB0121F0E703AB00932A468D
:103420003046134B04A9FDF799FD0746781CD6D109
:103430006B6ED90705D4AB899A0502D4A86DFEF747
:10344000C9FAAB895B063FF51FAF09981EE703ABCE
:1034500000932A463046064B04A9FEF71DF8E4E720
:103460005F62000865620008696200085D0F00087D
:1034700021320008F8B50E461446054618B1036A15
:103480000BB9FEF7B5F9A369A360A3891A0701D5A3
:10349000236943B92146284600F02AF818B14FF0B5
:1034A000FF373846F8BD23682269F6B2981A636977
:1034B0003746834205DC21462846FFF7EBFD00280E
:1034C000EDD1A368013BA36023685A1C22601E70E3
:1034D0006269431C9A4204D0A389DB07E1D50A2E16
:1034E000DFD121462846FFF7D5FD0028D9D0D6E701
:1034F00038B5294B054618680C4618B1036A0BB954
:10350000FEF776F9B4F90C30190722D4DA0607D49D
:1035100009222A6043F040034FF0FF30A38133E0DB
:10352000580712D5616B41B104F14403994202D0AE
:103530002846FFF7B1F800236363A38923F024032F
:10354000A3810023636023692360A38943F00803F8
:10355000A38123694BB9A38903F42073B3F5007FDA
:1035600003D02146284600F082F8B4F90C3013F05D
:1035700001020AD00022A26062695242A26122695D
:1035800042B913F08000C5D138BD990758BF6269B0
:10359000A260F4E70020F7E70C0000201F2938B5EF
:1035A00005460C4604D9162303604FF0FF3038BDA2
:1035B000C26B12B152F821304BB9284600F030F8F6
:1035C000224601462846BDE8384000F017B8012BD6
:1035D0000AD0591C03D1162303600120E7E700211C
:1035E000204642F8241098470020E0E7024B0146AD
:1035F0001868FFF7D3BF00BF0C00002038B50023C8
:10360000064D0446084611462B6000F0FDFD431CA4
:1036100002D12B6803B1236038BD00BFC80300206E
:1036200000F0F0BD70B50C46B1F90E10154600293A
:103630001E4696B00CDAA389002113F0800F14BF48
:1036400040234FF48063002031602B6016B070BDC2
:103650006A4600F049F80028EDDB019901F4704159
:10366000A1F50053594259414FF48063EBE78B8930
:10367000F7B59D0706460C4607D504F147032360BE
:1036800023610123636103B0F0BD6A4601ABFFF71C
:10369000C9FF009F054639463046FFF76FF848B925
:1036A000B4F90C309A05EED423F0030343F002037F
:1036B000A381E2E7A389C4E9040743F08003A3815F
:1036C000019B20605BB13046B4F90E1000F01EF88B
:1036D00028B1A38923F0030343F00103A381A38945
:1036E0001D43A581CFE7000038B50023064D0446F1
:1036F000084611462B6000F0B6FD431C02D12B6832
:1037000003B1236038BD00BFC803002038B50023D3
:10371000054D044608462B6000F0AAFD431C02D16B
:103720002B6803B1236038BDC803002010B50446E0
:1037300010F0FF0001D1204610BD00F0DDFBFAE7DC
:1037400008B5012806D0022803D10021044800F062
:1037500066FB08BD0121024800F061FBF9E700BFEC
:10376000640400202DE9F04186B0614A61490020DF
:1037700000F01CFA0646DFF880810225009501233F
:1037800042F2200241465D4800F0EAFA5C4F012413
:10379000009408235B4A39465B4800F0E1FA009543
:1037A000234640F608023946584800F0D9FA0095F9
:1037B000234640F204423946554800F0D1FA0095BC
:1037C000234641F210024146524800F0C9FA00F087
:1037D000C1F800F0A3FA00F035FB4F4B00936423CF
:1037E0001E2200214D4800F0A5F94D49002002F0AD
:1037F0002DFB002E3ED102A800F074FE434800F0DD
:10380000FBFA029A4749002002F04EFB039A464910
:10381000002002F049FB049A4449002002F044FBD6
:10382000059A4349002002F03FFB00F08FFA414B1C
:10383000186043F6982000F05CF900F018FC0124B1
:103840003D4B9C700021084600F02EFC029A3B493B
:10385000002002F029FB3A4800F066FC00212046D7
:1038600000F022FC374800F05FFC00263446354665
:1038700037461CE03449002002F016FBBBE71F4826
:1038800000F0C0FA1BE000F023FC3D4621E000F010
:103890001AFC3D461DE0204B009364232246002184
:1038A0001E4800F047F926461C4800F05BF900F07E
:1038B00051FA0146204800F0F3F80028DFD12348F0
:1038C00000F08EF8C0B23844C7B2BD42DBD3BD426F
:1038D000DDD81F4800F084F882B2224494B2A64298
:1038E000E2D0A4F11E039BB2142BD4D91E24D2E73C
:1038F0008404002000127A000008014044040020E3
:103900000010014020002004340400207404002032
:10391000640400205404002041370008D80300202C
:103920002D3700088C620008A4620008BC62000801
:10393000D46200089C04002020020020EC620008F1
:10394000FC6200080463000870620008D4010020D3
:10395000C801002030B583B0104C01250095082324
:103960000F4A21460F4800F0FBF9009508230E4A44
:1039700021460E4800F0F4F90095082340F2022297
:1039800021460B4800F0ECF900950823094A21462E
:10399000094800F0E5F903B030BD00BF000C01405C
:1039A00020002004240400204000400414040020CF
:1039B0000404002080008004F403002038B505468C
:1039C0000368DB68186800F032FA04466B68DB684D
:1039D000186800F02CFA44EA4000C0B238BD00007C
:1039E00010B50446FFF7EAFF40B22A4B1870237A5D
:1039F000984201D1002010BD2046FFF7DFFF264B83
:103A00001870237A032B27D8DFE803F002151A2059
:103A1000012823D0022823D14FF0FF3220721F4902
:103A20000B781344DAB25BB20B700332D2B2062ABF
:103A300026D80020DFE7A8B1032816D10122EDE740
:103A4000A8B1032815D14FF0FF32E7E7012812D0C3
:103A5000022813D10122E1E70022DFE70122DDE79E
:103A60000022DBE74FF0FF32D8E70022D6E7012241
:103A7000D4E70022D2E74FF0FF32CFE70022CDE7B4
:103A80001846002B04DB8010044B00221A70B2E7AA
:103A9000D81CF8E7A0040020A2040020A104002004
:103AA00038B504460D46C368186800F0C0F9A3781D
:103AB000834203D0A560A070002038BDE3681A7A65
:103AC000824207D0238813F0010FF4D023F00103C2
:103AD0002380F0E7228812F0010FECD1A168691A67
:103AE000DB889942E7D342F001022280A0700120D6
:103AF000E3E782B0C0EBC0000190019B5A1E019227
:103B0000002BFAD102B0704738B504460D4600F0DC
:103B10000BF9A04204D3001BA84207D2002038BDF5
:103B2000001B0138A84203D20020F8E70120F6E785
:103B30000120F4E7914214D2F8B506460D4614462A
:103B40001F469A4200D3F8BD00F000F9306075605E
:103B5000B460F760069BB361022333740023736182
:103B6000F1E7704710B5044641690068FFF7CCFFE4
:103B700040B1237C012B0BD0022B0ED01BB1A369CB
:103B8000207C984710BD01232374A3686361F6E786
:103B900002232374E3686361F1E7002323746368FD
:103BA000636100F0C1F82060E9E7000030B587B03C
:103BB000144638B1012828D00025281E18BF01203E
:103BC00007B030BD0D4621604FF4403191604FF495
:103BD000601050600023D3604FF480622261636103
:103BE0000190029103930492059303AB01AA012172
:103BF000284600F037FE0546206800F06BFD0E4AAF
:103C0000136843F400231360D7E74FF46011516049
:103C10000023D3604FF480622261636101910393BA
:103C20000492059303A901A800F0EEFD0546206863
:103C300000F050FDC1E700BF0010024000B587B0A2
:103C4000194BDA6942F00102DA61DB6903F0010322
:103C50000093009B00230193029303930493059325
:103C60003F23ADF804304FF6FF73039301A94FF0E3
:103C7000804000F047FC4FF080439A6822F4804275
:103C800022F007029A601A6822F002021A605A684B
:103C900022F0700242F020025A601A6842F00102DB
:103CA0001A6007B05DF804FB0010024010B586B042
:103CB000184BDA6942F00202DA61DB6903F00203B1
:103CC0000093009B002301930293039304930593B5
:103CD0004FF6FF730393104C01A9204600F012FC2D
:103CE000A36823F0070343F00603A360A36823F04F
:103CF000700343F01003A360A36823F4804323F010
:103D0000070343F00703A360236843F00103236024
:103D100006B010BD001002400004004008B5FFF7D7
:103D2000C5FFFFF78BFF08BD0749486A4FF0804287
:103D3000536A43EA0043496A506A40EA01408342B9
:103D400000D31846704700BF0004004008B5FFF7D5
:103D5000EBFF08BD08B5FFF7E7FF800A08BD0000CC
:103D600030B58BB09DF838C01F4CA56945F00405EF
:103D7000A561A56905F004050495049DA56945F0B4
:103D80000805A561A56905F008050395039DA569CA
:103D900045F01005A561A56905F010050295029D85
:103DA000A56945F02005A561A46904F020040194EB
:103DB000019C0160426005920693BCF1010F0DD099
:103DC000BCF1020F04D10223079300230893099347
:103DD00005A9006800F0E9FA0BB030BD0223079393
:103DE00001230993F4E700BF001002400268436812
:103DF000C3F30F231361704702684368C3F30F23B3
:103E00005361704702684368D168C3F30F2301EA26
:103E1000030023EA010343EA00431361704708B536
:103E200011B9FFF7E9FF08BDFFF7E0FFFBE7026804
:103E300043689068C04300EA132080B2B0FA80F073
:103E40004009704770B58EB0002407940894099417
:103E50000A940B940C940D94029403940494059486
:103E60000694224BDA6942F40032DA61DA6902F42C
:103E700000320192019A9A6942F004029A619B69A8
:103E800003F004030093009B40F2044302930926CD
:103E9000039602230493164D02A9284600F085FAE2
:103EA00040F608030293039602A9284600F07DFA23
:103EB0004FF4E1330793089409940A940C230B936D
:103EC0000C940D940B4C07A9204600F079FB236954
:103ED00023F490432361636923F02A036361E36859
:103EE00043F40053E3600EB070BD00BF0010024009
:103EF0000008014000440040034B1B6813F0800F92
:103F0000FAD0014B5860704700440040F0B583B0D0
:103F10001E4D0224009401231D4A29461D48FFF727
:103F20001FFF0094012344F2400229461A48FFF77C
:103F300017FF0094012342F2200229461748FFF799
:103F40000FFF174FA5F50065009401233A46294657
:103F50001448FFF705FF144E00940123324629460A
:103F60001248FFF7FDFE05F58065009401233A46EF
:103F700029460F48FFF7F4FE0094012332462946F4
:103F80000C48FFF7EDFE03B0F0BD00BF001001408C
:103F90000100010404050020F4040020E4040020D2
:103FA00010001004D404002008000804C4040020F9
:103FB000B4040020A4040020F8B50378C3F3C007BC
:103FC000C3F38006C3F3400503F00104003918BFB2
:103FD00001211348FFF723FF00211248FFF71FFFBD
:103FE00039461148FFF71BFF31461048FFF717FF0E
:103FF00029460F48FFF713FF21460E48FFF70FFF32
:104000000D4C01212046FFF70AFF0520FFF771FD47
:1040100000212046FFF703FF0520FFF76AFDF8BDEA
:1040200004050020F4040020D4040020C40400206F
:10403000B4040020A4040020E404002000B583B0F0
:1040400003098DF8073000F00F008DF806000021FD
:104050000DF10700FFF7B0FF00210DF10600FFF79B
:10406000ABFF1420FFF745FD03B05DF804FB08B576
:10407000FFF74CFF2820FFF7E1FF0620FFF7DEFFE8
:104080000820FFF7DBFF0C20FFF7D8FF0120FFF728
:10409000D5FF0220FFF7D2FF40F20E60FFF729FDA7
:1040A0008020FFF7CBFF08BD08B510B1012805D06F
:1040B00008BD81F08000FFF7C1FFF9E74039C8B2C1
:1040C000FFF7BCFFF4E708B51820FFF7B7FF08BDFE
:1040D00008B51C20FFF7B2FF08BD10B582B004463A
:1040E00003098DF8073001210DF10700FFF764FF88
:1040F00004F00F048DF8074001210DF10700FFF7D0
:104100005BFF1420FFF7F5FC02B010BD70B506464A
:104110000D46002402E0FFF7E0FF0134AC4202DA72
:10412000305D0028F7D170BD08B51821FFF7EEFF0C
:1041300008BDFEE7FEE7FEE7FEE770477047704701
:1041400070470000044B5B6913F4005F03D0024B1F
:104150004FF400525A61704700040140044B1B6940
:1041600013F0010F03D0024B6FF001021A61704788
:10417000002C014082B0054B019302E0019B013B02
:104180000193019B002BF9D102B07047A08601007A
:1041900082B0054B019302E0019B013B0193019B1F
:1041A000002BF9D102B0704740420F0030B583B008
:1041B000012301930A2300930AE00F4C2025256177
:1041C000FFF7E6FF6561FFF7E3FF019B013B01930A
:1041D000019B002BF1D10AE0074C20252561FFF758
:1041E000C9FF6561FFF7C6FF009B013B0093009B81
:1041F000002BF1D103B030BD0008014008B5FFF736
:10420000D5FFFCE70120704708B501F067FE1623D3
:1042100003604FF0FF3008BD08B54FF0FF31FFF7E6
:10422000F3FFFEE770B50C461646002506E0AFF337
:104230000080214601F8010B01350C46B542F6DB42
:10424000304670BD70B50C461646002504E014F8E3
:10425000010BAFF300800135B542F8DB304670BD8D
:104260004FF0FF3070474FF400534B600020704711
:10427000012070470020704710B503460C4A0D49D5
:104280000D48006840B10C4800680344521A93423C
:1042900006D8094A136010BD0748084C0460F2E7CD
:1042A00001F01CFE0C2303604FF0FF30F3E700BF6A
:1042B000005000200004000014050020200500200C
:1042C00070470000FFF7FCFF0B480C490C4A002325
:1042D00002E0D458C4500433C4188C42F9D3094ABC
:1042E000094C002301E013600432A242FBD3FDF726
:1042F0004BFBFFF737FA70470000002070020020E8
:10430000F0630008700200201C050020FEE710B5D5
:104310004FEA116E50F80E3091FAA1FCBCFA8CFCF9
:104320004FEA8C0C0F2404FA0CFC23EA0C0391FADC
:10433000A1F1B1FA81F189008A40134340F80E30AF
:1043400010BD10B54FEA116E50F80E3091FAA1FC75
:10435000BCFA8CFC4FEA8C0C032404FA0CFC23EA14
:104360000C0391FAA1F1B1FA81F189008A4013435B
:1043700040F80E3010BD10B54FEA116E50F80E30F7
:1043800091FAA1FCBCFA8CFC4FEA8C0C042404FAD0
:104390000CFC23EA0C0391FAA1F1B1FA81F1890036
:1043A0008A40134340F80E3010BD2DE9F04180469D
:1043B0000E460F68C7F30F2797FAA7F4B4FA84F4F0
:1043C00014E0A4F108034FF001159D4045F080650D
:1043D0007368082B17D0726829464046FFF797FF8D
:1043E0007368012B1ED0092B1CD0013437FA04F35B
:1043F00023D00123A3403B42F7D0072CE1D840F261
:104400000115A540E4E73269D8F80C102B0A21EA1F
:10441000152193FAA3F3B3FA83F39A400A43C8F839
:104420000C20D8E7B26829464046FFF78AFFF268B9
:1044300029464046FFF79FFFD7E70020BDE8F081FF
:10444000034B5B68C3F30313024AD35CD840704745
:104450000010024014630008034B5B68C3F302239F
:10446000024AD35CD8407047001002400C63000839
:10447000034B5B68C3F3C223024AD35CD840704746
:10448000001002400C6300080B4B5B6803F48033A0
:1044900043B90A48084B5B68C3F38343023303FB09
:1044A00000F07047044B5B68C3F34043013304489A
:1044B000B0FBF3F0EEE700BF0010024000093D0042
:1044C00000127A0008B5054B5B6803F00C03082B5B
:1044D00001D0034808BDFFF7D7FFFBE700100240FB
:1044E00000127A0010B50446FFF7ECFF2060FFF7DA
:1044F000A7FF6060FFF7B0FFA0606068FFF7B8FF3C
:10450000E06010BD03681A4A90420AD0B0F1804FB3
:1045100007D0A2F59432904203D002F58062904217
:1045200003D123F070034A681343114A90420AD022
:10453000B0F1804F07D0A2F59432904203D002F53B
:104540008062904203D123F44073CA68134303602E
:104550008B68C3620B888362054B984205D0436920
:1045600043F001034361002070470B690363F6E7E2
:10457000002C014010B401EB810101EB810192009C
:10458000B1FBF2F10D4CA4FB01235B091A0192B2BD
:104590004FF0640C0CFB13131B013233A4FB0343D9
:1045A000C3F34F1303F0F0010A4492B203F00F0378
:1045B00013449BB2836010BC704700BF1F85EB5152
:1045C000C36813F4005F01D00120704730B585B097
:1045D00004460D46C36823F4B05323F00C034A6825
:1045E000C9680A4329690A431343C360AB68026977
:1045F00022F44052134303616B69426922F4407212
:10460000134343616846FFF76DFF0E4B9C4208D091
:104610000D4B9C420BD00D4B9C420AD0012005B0A3
:1046200030BD039961B12A682AB90120F7E70299E0
:10463000F8E70299F6E72046FFF79CFF0020EEE737
:104640000120ECE7003801400044004000480040F1
:104650004B685B0C0133B0FBF3F00B689B0C02332F
:1046600003FB00F070470000044B1B6813F0007F51
:1046700001D1002070470120704700BF00100240A8
:1046800010B50C46FFF7F0FFF8B900F1804303F5D1
:1046900004331B6813F4003F18D1012C0FD00C4ACF
:1046A000136823F480231360094A136843F48033AA
:1046B0001360074B1B6813F4003FFAD006E0044A6E
:1046C000136843F480231360EEE7012010BD00BFA0
:1046D00000100240064BA3FB00239B09013B4FF057
:1046E000E02253610023936105231361704700BFEB
:1046F000D34D6210014B1860704700BF6C02002060
:10470000F0B1114A904204D8104A904216D90121C2
:1047100000E002210E4A136823F007030B431360E5
:1047200002220B4B1B6803F00703013A994201D0A8
:10473000002AF6D1994205D0012070470021E9E70F
:104740000120704700207047006CDC0200366E01CB
:1047500000200240F8B504460D46284B1E68284B41
:104760005B68C3F30313274AD35C9E4086422FD372
:104770000027234A136843F080731360204B1B68A3
:1047800013F0007FFAD02B681D4A516821F0F00128
:104790000B435360536823F0030343F00203536059
:1047A000174B5B6803F00C03082BF9D16A68144BB4
:1047B000596821F4E0610A435A60AA68596821F4F3
:1047C00060510A435A60A64208D867B13846F8BD1E
:1047D000FFF796FF07460028F5D1CAE72046FFF706
:1047E0008FFF0746F1E72B68C3F30313054AD05C3C
:1047F00024FA00F0FFF77EFFE8E700BF6C0200201C
:10480000001002401463000838B504460D46FFF757
:104810002BFF00BB4FF40033636021460F48FFF7C6
:1048200017FF0F4B1B6813F0020F09D10C4A1368D6
:1048300043F0010313600A4B1B6813F0020FFAD018
:10484000236807494A6822F47C1213434B602946C7
:10485000FFF780FF38BD0120FCE700BF00127A009F
:10486000001002402DE9F04180460E4614461D46D8
:104870001146FFF7EDFE07462B46224631464046DD
:10488000FFF7FEFE08B1BDE8F081626821680848C4
:10489000436823F47C1302F4403242F480320A432A
:1048A0001343436029463846FFF754FFEBE700BF48
:1048B0000010024038B5037E83B904460D460168F6
:1048C0000B682846984708B90123237645B1237E13
:1048D00043B9236901332361012000E0002038BD82
:1048E0000120FCE70120FAE784460168002005E08A
:1048F00000EB8000303B03EB400001310B78A3F16B
:104900003002D2B2092AF3D9CCF800107047000067
:1049100070B504460E46426A002A08DD838B23F4F4
:10492000FF4323F07D039BB20BB1013A4262E2697F
:10493000504B1340202B0FD0237F13F0080F26D0AD
:1049400094F91D20002A1EDB13F0020F2DD063699D
:104950002B21204698471AE094F82830082B09D0DC
:10496000102B01D0022BE7D1636A012B08DD023B3B
:104970006362E1E7636A002BDEDD013B6362DBE734
:1049800000236362D8E763692D2120469847E269D6
:10499000384B1340202B10D0237F13F0010F48D148
:1049A000636A002B45DD354636E013F0040FEED088
:1049B0006369202120469847E9E794F82830082BBE
:1049C00010D0102B13D0022BE6D163693021204682
:1049D00098476369627F12F0400F17D0422120464A
:1049E0009847D9E76369302120469847D4E763693F
:1049F0003021204698476369627F12F0400F03D050
:104A0000582120469847C7E77821FAE76221E6E770
:104A10002021204690470135237F13F0010F08D154
:104A2000626AAA4205D9626913F0080FF0D03021FA
:104A3000EFE7237F13F0080F0FD194F91D20002A10
:104A400007DB13F0020F0AD063692B212046984739
:104A500003E063692D2120469847012070BD13F0C3
:104A6000040FFAD0636AB342F7D863692021204665
:104A70009847F2E72000010038B504460D46037F51
:104A800013F0010F06D1012038BD636920212046B3
:104A900098470135636AAB42F7D8F4E7F8B50546A5
:104AA0000F461646002404E06B69395D2846984796
:104AB0000134B442F8D30120F8BD70B505460E4666
:104AC00014461146FFF724FF224631462846FFF7D9
:104AD000E5FF21462846FFF7CFFF012070BDF8B55E
:104AE00005460E1E0CBF01220022837F62F30003E5
:104AF000837702D03346002111E00121FFF708FF40
:104B00006B6930212846984701212846FFF7B4FFFA
:104B100034E00131C9B295F82820B3FBF2F3002B41
:104B2000F7D1012401E002FB04F4B6FBF4F395F89D
:104B300028209342F7D20F462846FFF7E9FE05E00A
:104B4000302319446B69C9B22846984794B1B6FB23
:104B5000F4F304FB136695F82820B4FBF2F4D9B201
:104B6000092BEDD96B7F13F0400F01D03723E8E715
:104B70005723E6E739462846FFF77EFF0120F8BDB8
:104B8000F8B505460E1E0CBF01220022837F62F39A
:104B90000003837702D03346002111E00121FFF7A3
:104BA000B7FE6B6930212846984701212846FFF758
:104BB00063FF34E00131C9B295F82820B3FBF2F36A
:104BC000002BF7D1012401E002FB04F4B6FBF4F35F
:104BD00095F828209342F7D20F462846FFF798FE13
:104BE00005E0302319446B69C9B22846984794B14F
:104BF000B6FBF4F304FB136695F82820B4FBF2F43B
:104C0000D9B2092BEDD96B7F13F0400F01D03723B8
:104C1000E8E75723E6E739462846FFF72DFF01204E
:104C2000F8BD2DE9F84F804616461F4652EA0703A5
:104C30000CBF01220022837F62F30003837704D03C
:104C4000304639464FF0000915E00121FFF760FEBC
:104C5000D8F8143030214046984701214046FFF7EC
:104C60000BFF5DE009F101095FFA89F998F8282046
:104C70000023FBF709FF50EA0103F3D101250024CB
:104C800004E004FB03F3A5FB02541C442A4623461C
:104C900030463946FBF7F8FE98F828301A46984215
:104CA00071F10001EDD2CA4649464046FFF730FE99
:104CB00006E030231944D8F81430C9B2404698476A
:104CC00055EA040328D02A46234630463946FBF7E6
:104CD000DBFE834689462A46234630463946FBF7A3
:104CE000D3FE16461F4698F8282000232846214662
:104CF000FBF7CAFE05460C465FFA8BF1BBF10A0FC3
:104D000079F10009D5D398F81D3013F0400F01D088
:104D10003723CFE75723CDE751464046FFF7ACFE98
:104D20000120BDE8F88FF8B505460E1E0CBF012224
:104D30000022837F62F30003837702D03346002191
:104D400011E00121FFF7E4FD6B6930212846984707
:104D500001212846FFF790FE34E00131C9B295F8F1
:104D60002820B3FBF2F3002BF7D1012401E002FB72
:104D700004F4B6FBF4F395F828209342F7D20F46DB
:104D80002846FFF7C5FD05E0302319446B69C9B219
:104D90002846984794B1B6FBF4F304FB136695F8E4
:104DA0002820B4FBF2F4D9B2092BEDD96B7F13F0B4
:104DB000400F01D03723E8E75723E6E73946284676
:104DC000FFF75AFE0120F8BDF8B505460E1E0CBFD0
:104DD00001220022837F62F30003837702D03346EF
:104DE000002111E00121FFF793FD6B693021284676
:104DF000984701212846FFF73FFE34E00131C9B250
:104E000095F82820B3FBF2F3002BF7D1012401E041
:104E100002FB04F4B6FBF4F395F828209342F7D292
:104E20000F462846FFF774FD05E0302319446B69EF
:104E3000C9B22846984794B1B6FBF4F304FB136655
:104E400095F82820B4FBF2F4D9B2092BEDD96B7F89
:104E500013F0400F01D03723E8E75723E6E7394640
:104E60002846FFF709FE0120F8BD2DE9F84F8046DE
:104E700016461F4652EA07030CBF01220022837F19
:104E800062F30003837704D0304639464FF00009BF
:104E900015E00121FFF73CFDD8F8143030214046E1
:104EA000984701214046FFF7E7FD5DE009F1010960
:104EB0005FFA89F998F828200023FBF7E5FD50EA0E
:104EC0000103F3D10125002404E004FB03F3A5FB57
:104ED00002541C442A46234630463946FBF7D4FD8B
:104EE00098F828301A46984271F10001EDD2CA466E
:104EF00049464046FFF70CFD06E030231944D8F838
:104F00001430C9B24046984755EA040328D02A46CF
:104F1000234630463946FBF7B7FD834689462A4685
:104F2000234630463946FBF7AFFD16461F4698F834
:104F30002820002328462146FBF7A6FD05460C46FF
:104F40005FFA8BF1BBF10A0F79F10009D5D398F81C
:104F50001D3013F0400F01D03723CFE75723CDE7A3
:104F600051464046FFF788FD0120BDE8F88F08B59F
:104F7000002902DBFFF7B3FD08BD437F43F0800348
:104F800043774942F6E708B5002902DBFFF7F8FD51
:104F900008BD437F43F0800343774942F6E708B5F5
:104FA000002B02DBFFF73DFE08BD417F41F0800191
:104FB0004177524263EB4303F4E700000000000036
:104FC0002DE9F84F05460C4616461F4628220021BB
:104FD0002046FCF786FC2B6A122B01DD12232B6284
:104FE000A5A3D3E9002330463946FBF7BFF80646B0
:104FF0000F46FBF761FD82468B4620606160FBF740
:105000003DFA02460B4630463946FBF7ADF80646F8
:105010000F462A6A9A4B03EBC203D3E90001FBF760
:105020002DFA02460B4630463946FBF755FA8046C4
:105030008946C4E90289FBF73FFD06460F46206119
:105040006161FBF71BFA02460B4640464946FBF7F7
:105050008BF880468946C4E906890022894BFBF714
:10506000CBFC58B3013647F10007266167612A6A15
:10507000834B03EBC20153F832204B6896429F41A9
:1050800009DB00220023C4E904231AF101024BF1D9
:105090000003226063602268606852EA000325D141
:1050A00001232384B5F9203063849DF82830672BD1
:1050B00055D0B5F92030A384BDE8F88F0022714B9C
:1050C00040464946FBF77AFC0028E4D156EA07033C
:1050D00006D11AF101034BF1000223606260DAE7A6
:1050E000013647F1000726616761D4E70023238476
:1050F00030E0B4F9203001332384C61706F00307EB
:1051000022F07043110F41EA001121F070410B446D
:1051100003EB10633B445C49A1FB037C2CF00307C9
:1051200007EB9C07DB1B26F003063344D21A60EB27
:10513000E3734FF0CC3002FB00F001FB0300A2FB55
:1051400001230344D90F891843F10003490841EAB8
:10515000C3725810012A70F10003CADAA2E722696B
:1051600067690020064633E04FEAE77C0CF0030E47
:1051700022F07043110F41EA071121F070410B44F6
:1051800003EB176373444049A1FB03E828F0030EC7
:105190000EEB980EA3EB0E032CF0030C6344D21A13
:1051A00067EBE3734FF0CC3702FB07F701FB0377A4
:1051B000A2FB01233B44D90F891843F1000349089E
:1051C00041EAC3725F10A38C3344A384013000B260
:1051D000012A77F100034ADB002EC5D14FEAE77CB4
:1051E0000CF0030E22F07041130F43EA071323F073
:1051F0007043194401EB17617144234BA3FB01E891
:1052000028F0030E0EEB980EA1EB0E012CF0030C10
:105210006144B2EB010C67EBE1714FF0CC3E0EFB49
:105220000CFE03FB01EEACFB031373444FEAD37C8B
:105230001CEB010C43F100034FEA5C0C4CEAC37C0D
:105240005B104FEA830E4EEA9C7E4FEA8C0111EB15
:105250000C0143EB0E0349185B41511A67EB030342
:10526000012973F10003FFF67FAF01267CE7B5F952
:1052700020308342B0DC1FE79B2BA1869B84F63C49
:10528000486300080000E03FCDCCCCCC000000001B
:105290002DE9F04F95B004469046994690F8295074
:1052A00010461946FBF780FB002863D04FF0FF3211
:1052B0006FF4801340464946FBF780FB002867D116
:1052C0004FF0FF32A64B40464946FBF795FB0028BE
:1052D0006AD19FA3D3E9002340464946FBF76EFB02
:1052E00038B99DA3D3E9002340464946FBF784FB28
:1052F00020B1672D02D0652584F8295000220023B3
:1053000040464946FBF75AFB00286DD1652D0BD06E
:10531000672D09D090A3D3E9002340464946FBF707
:105320006BFB002800F0878094F82930672B02D0AF
:10533000652384F8293000228A4B40464946FBF712
:105340003DFB002872D146464F464FF0000A00222E
:10535000854B30463946FBF745FB00286FD00022CD
:10536000814B30463946FBF7E1F906460F460AF114
:10537000010AECE7637F13F0400F07D07B4903225B
:105380002046FFF79AFB15B0BDE8F08F7849F6E7A5
:10539000637F13F0400F05D0764904222046FFF7C3
:1053A0008CFBF0E77449F8E7237F13F0020F15D068
:1053B0002B238DF808300DF10902637F13F0400FA5
:1053C0000ED06E4B1B681360237F13F0020F09D0C1
:1053D000042202A92046FFF770FBD4E702AAECE7FB
:1053E000674BEFE70322F4E7637F43F080036377C3
:1053F00009F10043994689E700225B4B3046394664
:10540000FBF76AF806460F460AF1FF3A0022554BB1
:1054100030463946FBF7D2FA88B1002200233046E5
:105420003946FBF7E9FA0028E6D108E046464F4640
:105430004FF0000AEAE746464F464FF0000AD4F81C
:1054400020B0BBF1120F38DD12232362652D44D04A
:1054500042464B4600950AA92046FFF7B1FD672D4D
:105460003ED0BDF94810672D5ED0BBF1000F06DDC0
:10547000237F13F0400F02D00BF10103194494F87D
:105480002930652B5AD00F462046FFF741FA0A9B78
:105490000B9A134376D16369302120469847236ADB
:1054A000002B40F3A481BDF94C30002B03DD636970
:1054B0002E212046984700264FE1237F13F0400F0E
:1054C00003D1062323629B46C0E7BBF1000FBDD189
:1054D000672DBBD101232362B8E732463B46B9E7CB
:1054E0001AF1040F0EDB236A53450BDD0AF10102AA
:1054F0009B1A2362ABEB020B662384F829304646E5
:105500004F4609E0652384F82930236A002B03DD28
:10551000013B23620BF1FF3B009532463B460AA953
:105520002046FFF74DFD9CE7236A002B9DDDBDF96A
:105530004C301944002BA2DD0131A0E70AF16303CE
:10554000C62B02D9052319449DE70423FBE700BFBE
:1055500000C84E676DC1ABC300C84E676DC1AB4399
:10556000FFFFEF7F0000F03F0000244024630008AD
:10557000286300082C630008346300083C630008BB
:105580004063000800260A9A0B99012A71F1000372
:105590006BDB4FEAE17C0CF0030E22F07043100F3E
:1055A00040EA011020F07040034403EB11637344A0
:1055B000B448A0FB03E828F0030E0EEB980EA3EB13
:1055C0000E032CF0030C6344B2EB030C61EBE373AA
:1055D0004FF0CC3E0EFB0CFE00FB03E3ACFB00C027
:1055E0001844C30F13EB0C0340F100005B0843EABF
:1055F000C07303EB8303A2EB4303DBB2303306F14A
:105600005000684400F8403C4FEAE17C0CF0030E87
:1056100022F07040130F43EA011323F07043184443
:1056200000EB11607044974B28F0030E0EEB980EC0
:10563000A0EB0E002CF0030C6044121A61EBE0703A
:105640004FF0CC3102FB01F103FB0010A2FB03136E
:105650000344DA0F521843F10003520842EAC372BE
:105660005B100A920B9301368DE7002E7FF717AF80
:105670006369013E06F150026A4412F8401C20465C
:105680009847F2E74FEAE17C0CF0030E22F07043FA
:10569000100F40EA011020F07040034403EB116347
:1056A00073447848A0FB03E828F0030E0EEB980E35
:1056B000A3EB0E032CF0030C6344B2EB030C61EB81
:1056C000E3734FF0CC3E0EFB0CFE00FB03E3ACFBA0
:1056D00000C01844C30F13EB0C0340F100005B083B
:1056E00043EAC07303EB8303A2EB4303DBB2303323
:1056F00006F15000684400F8403C4FEAE17C0CF0B1
:10570000030E22F07040130F43EA011323F070439D
:10571000184400EB116070445A4B28F0030E0EEB56
:10572000980EA0EB0E002CF0030C6044121A61EBF3
:10573000E0704FF0CC3102FB01F103FB0011A2FB42
:1057400003230B44D90F8A1843F10003520842EA9D
:10575000C3725B100E920F9301360E9A0F99012AB5
:1057600071F100038EDA672D15D0B0461CE0636935
:1057700030212046984708F10108BDF94C30013B23
:10578000ADF84C30236A9B1B434510DDBDF94C300E
:10579000002BECDC0BE04FF00008F3E763693021ED
:1057A0002046984708F10108236A4345F6DC002E9D
:1057B00012DD6369013E06F150026A4412F8401C92
:1057C00020469847672DF2D1BDF94C30013B1BB202
:1057D000ADF84C30002BEAD1672D06D107E06369A4
:1057E00030212046984708F10108C345F7DC94F8BA
:1057F0002910652905D039462046FFF73DF90120DB
:10580000C1E56369627F12F0400F00D04521204658
:1058100098476369BAF1000F2EDB2B212046984789
:10582000BAF1000F2ADBBAF1630F0DDD6369164A86
:1058300082FB0A124FEAEA7ACAEB621A5FFA8AF12D
:105840003031C9B2204698476369104A82FB0A1278
:105850004FEAEA75C5EBA205E9B23031C9B220467C
:105860009847636905EB8505AAEB4501C9B230315C
:10587000C9B220469847BEE72D21CFE7CAF1000AFA
:10588000D1E700BFCDCCCCCC1F85EB5167666666F7
:105890002DE9F04385B0044601914368039361E12B
:1058A000013303930023E36123626362A362012552
:1058B00022E0237F43F001032377E5B10132039215
:1058C00019E0237F43F002032377F6E7237F43F0B9
:1058D00004032377F1E7237F43F008032377ECE702
:1058E000237F43F010032377E7E7237F43F0200370
:1058F0002377E2E705464DB3039A1378203B102B3C
:10590000F8D801A151F823F0CD580008F558000847
:10591000F5580008EB580008F5580008F55800083D
:10592000F5580008E1580008F5580008F558000837
:10593000F5580008C3580008F5580008B358000887
:10594000F5580008F5580008D7580008039B1A7846
:10595000A2F13003DBB2092B21D92A2A24D000235B
:105960002362039B1A782E2A30D0039A1378683B5F
:10597000122B72D8DFE813F047007100E1007100CC
:1059800059007100710071007100710071007100A7
:105990007100710071007100710071006B0003A84B
:1059A000FEF7A2FF6062DAE7019B1A1D01921B68F5
:1059B000002B04DB6362039B01330393CFE7227F59
:1059C00042F0010222775B426362F4E7227F42F0F9
:1059D000400222775A1C03925B782A2B08D0303B76
:1059E000DBB2092BC1D803A8FEF77EFF2062BCE71B
:1059F000019B1A1D01921B6823EAE3732362039B38
:105A000001330393B1E7637F012161F3830363777C
:105A1000531803935378682B1FD1637F022161F3DE
:105A2000830363770A44039217E0637F012161F3E4
:105A3000010363775318039353786C2B0DD1637F65
:105A4000022161F3010363770A44039205E0637F57
:105A500043F01003637701320392039A1378A3F1A2
:105A60004101C9B2192900D820252B4484F82930D6
:105A70001378413BDBB2192B03D8637F43F040031B
:105A800063771178A1F12503532B00F2D381DFE86E
:105A900013F06701D101D101D101D101D101D101AF
:105AA000D101D101D101D101D101D101D101D10166
:105AB000D101D101D101D101D101D101D101D10156
:105AC000D101D101D101D101D1015B00AF00D101E0
:105AD000D101530153015301D101D101D1016C0115
